:100000000C9460000C94D40C0C94FB0C0C948800A1
:100010000C9488000C9488000C9488000C94A60D15
:100020000C9488000C9488000C9488000C94880030
:100030000C9488000C9488000C9488000C94880020
:100040000C945E0B0C9488000C94F80E0C942A0F00
:100050000C9488000C9488000C9488000C94880000
:100060000C9488000C948800000000080002010035
:100070000003040700000000000000000102040863
:100080001020408001020408102001020408102002
:10009000040404040404040402020202020203032E
:1000A0000303030300000000250028002B000000CC
:1000B0000000240027002A000200B40ACE0C500FD2
:1000C00011241FBECFEFD8E0DEBFCDBF12E0A0E00D
:1000D000B1E0EAEBF1E202C005900D92A23BB1075C
:1000E000D9F724E0A2EBB2E001C01D92A73EB2070F
:1000F000E1F710E0C0E6D0E004C02197FE010E94C5
:10010000D510CD35D107C9F70E94BF0C0C94B010A3
:100110000C940000E2E10E942F010895E9E00E94A2
:100120002F010895EAE00E942F010895E1E00E9466
:100130002F010895E3E00E942F010895E7E00E9457
:100140002F010895E5E00E942F010895E0E00E944C
:100150002F010895E2E00E942F010895E4E00E943B
:100160002F010895ECE00E942F010895E8E00E941D
:100170002F010895EEE00E942F010895E4E10E940E
:100180002F010895E0E10E942F010895E7E10E9408
:100190002F010895E6E00E942F010895EBE00E94F0
:1001A0002F010895EDE00E942F010895EFE00E94D5
:1001B0002F010895E1E10E942F010895E3E10E94DB
:1001C0002F010895E5E10E942F010895E6E10E94C4
:1001D0002F01089521968A929A92AA92BA92CA926F
:1001E000DA92EA92FA920A931A932197E0916B01BC
:1001F000F0916C010080F181E02DC083D1830895DE
:10020000C0916D01D0916E01E881F981C081D181E9
:10021000219619910991F990E990D990C990B990D6
:10022000A99099908990219708952F903F90E7E6A3
:10023000F1E0CDB7DEB7EDBFFEBF3F922F9208953C
:100240002F903F90CDBFDEBF3F922F920895E0E800
:100250000E942F010895E0E40E942F0108952F923B
:100260003F924F925F926F927F922FB62F92CF93D1
:10027000DF937E2EF894E0910001EF5FE0930001A0
:10028000E13011F40E941501E0E0E0937B01E72DDD
:10029000E07849F00E947F05F0917C01F17071F0E7
:1002A0000E944B040BC0E72DEC3140F4EE0FF0E060
:1002B000E05AFD4F0190F081E02D0995F0917B010E
:1002C000EF2FE17059F0F27011F00E94EA008F9365
:1002D0008F2F0E9493038F910E94000120910001B3
:1002E000215020930001222311F40E942001DF916C
:1002F000CF912F902FBE7F906F905F904F903F9047
:100300002F900895CF92DF92EF92FF920F931F9359
:10031000DC01EC91DB012C918E2F8170C82E880FAF
:10032000DD08EE08FF088E2F8770082E000C990B51
:10033000AA0BBB0BB695A79597958795DC01AC5298
:10034000BD4F8C91C81AD108E108F108E670422F20
:100350004170042E000C550B660B770B822F8770B3
:10036000082E000C990BAA0BBB0BB695A795979579
:100370008795DC01AC52BD4F8C91481B5109610936
:100380007109822F8670970186010170112722273B
:1003900033270E2B4170552766277727482B81E09E
:1003A00090E0041715072607370710F080E090E06B
:1003B0001F910F91FF90EF90DF90CF9008958F9253
:1003C0009F92AF92BF92EF92FF920F931F93CF93A2
:1003D000DF937C014A015B01B694A79497948794BC
:1003E0004230510561057105E0F0440F551F87014A
:1003F000040F151FE401CC0FDD1FCE0DDF1DB8016A
:10040000CE010E948201892B61F0F80190818181E7
:10041000288139813183208398838983B501A401A0
:10042000DBCFDF91CF911F910F91FF90EF90BF90A5
:10043000AF909F908F9008954F925F926F927F92AE
:100440008F929F92AF92BF92CF92DF92EF92FF92E4
:100450000F931F93CF93DF9300D000D000D0CDB780
:10046000DEB78C016A017B01DC018C91282F880F9B
:10047000330B440B550B29833A834B835C83460132
:100480005701880C991CAA1CBB1C29813A814B81FD
:100490005C81281539054A055B0508F442C0240132
:1004A00035013FEF431A530A630A730A89819A811F
:1004B000AB81BC8184159505A605B70580F0B20116
:1004C000660F771F600F711FC401880F991F800F7F
:1004D000911F0E948201892B11F0530142013401C6
:1004E000660C771C600E711ECC0CDD1CD801AC0DA7
:1004F000BD1DBE83AD83B301CD010E948201892B56
:1005000081F0ED81FE8190818181D3012D913C911B
:100510001197318320839C9311968C93750164010C
:10052000AECF26960FB6F894DEBF0FBECDBFDF91DB
:10053000CF911F910F91FF90EF90DF90CF90BF90E0
:10054000AF909F908F907F906F905F904F900895A5
:10055000EBE8F3E040814F5F4083042E000C550B25
:10056000660B770BE82FEE0FFF0BE75CFD4F01905A
:10057000F081E02D2385022E000C330BF901EC52A3
:10058000FD4F908191509083FA01EE0FFF1FE557C8
:10059000FC4F220F331F9170292B208381838BE81E
:1005A00093E00C94DF01EBE8F3E040814F5F408380
:1005B000042E000C550B660B770BE82FEE0FFF0B8C
:1005C000EB5CFD4F0190F081E02D9381FA01EE0F7D
:1005D000FF1FE557FC4F908381838BE893E00C94D9
:1005E000DF01CF93DF93ABE8B3E0EC918FEF8E0F99
:1005F0008C931296DC9112971396CC911397EE0F71
:10060000FF0BE557FC4F8081918113969C938E934D
:10061000129741E050E060E070E0CD010E941C02C2
:100620008D2F9C2FDF91CF91089580917301909130
:100630007401A0917501B09176018F3F2FEF920761
:10064000A207B20739F0181619061A061B0624F07D
:1006500081E0089580E0089582E00895880F990B65
:10066000FC01E75CFD4F0190F081E02D0084F185F5
:10067000E02D3097F9F0228121111CC021E0228366
:10068000DC01AB5CBD4F0D90BC91A02D13968C91FD
:10069000139781838081082E000C990BFC01EC528A
:1006A000FD4F208121502083880F991F2170822BBC
:1006B00013968C930895880F990BFC01E75CFD4F0E
:1006C0000190F081E02D0084F185E02D309761F0FC
:1006D0002281213049F412822181FC01EB5CFD4F23
:1006E0000190F081E02D238308958091770190910E
:1006F0007801A0917901B0917A01409173015091F4
:1007000074016091750170917601481759076A0765
:100710007B0741F0E0917101F091720121E02483A7
:100720000C94D3020895CF93DF93882391F0C09166
:100730006B01D0916C01E0916F01F09170018481A7
:10074000833049F081E08483809173010E94D30259
:1007500002C0C0E0D0E0E0917101F0917201F0932D
:100760007001E0936F0180916D0190916E01909303
:100770006C0180936B018091770130917801209119
:10078000790190917A0180937301309374012093E1
:1007900075019093760192E094830E942E03CE011E
:1007A000DF91CF910895809173010E945B03E091E6
:1007B0006F01F09170018281882319F085E08483B4
:1007C000089514820895CF93DF93282F220F330BBF
:1007D000F901EB5CFD4FC081D1819A81F901E75CA1
:1007E000FD4F0190F081E02D2485921770F4911156
:1007F00005C095E09C8391E090937C010E94A80243
:100800008A818F5F8A8380E001C084E0DF91CF918D
:100810000895E82FEE0FFF0BEB5CFD4F0190F08188
:10082000E02D118210820C94790C1F93CF93DF93EB
:100830000E94F102182F892F492F092E000C550B09
:10084000660B770B409377015093780160937901A1
:1008500070937A01292F220F330BF901EB5CFD4FC6
:10086000C081D181D0937201C0937101F901E75C1D
:10087000FD4F2081318130936E0120936D019C8169
:10088000953019F40E9409041B8310927C01DF91BA
:10089000CF911F910895E0917701F0917801EE0FCB
:1008A000FF1FEB5CFD4F0190F081E02D90918D03D7
:1008B0008381891734F40E9475030E94150483E034
:1008C00001C080E080937B01089581E080937B01EB
:1008D0000C941504CF93DF93C1E0D0E001C0CC0F9E
:1008E0008A95EAF781E00E94E30380915E028C23FF
:1008F00019F080E00E94E30380915D02C82359F063
:1009000080912A0290912B0221E0FC012687DF9141
:10091000CF910C94B804DF91CF9108950E946606A0
:1009200081110E948706E0916F01F0917001808132
:100930009181892B21F0809173010E944E080C94C3
:10094000AF070E94660681110E948706E0916F0141
:10095000F091700180819181892B21F08091730148
:100960000E944E080C94970781E08093B20208958C
:10097000AF92BF92CF92DF92EF92FF920F931F93AD
:10098000CF93DF93FC01A081B181AD90BC90E501D4
:10099000AC89BD89109739F042855385648575858A
:1009A00030E020E017C0D50155969C938E93549764
:1009B00057969C938E9356971582148213821282B7
:1009C0005BC012968D919C9113973A2F2B2F009715
:1009D00079F0DC011A96CD90DD90ED90FC901D979A
:1009E0004C155D056E057F0560F7CD01A32FB22F75
:1009F00093838283B583A483009719F0EC01FD8370
:100A0000EC83109729F01396FC93EE93129705C090
:100A1000D5015596FC93EE935497E501AE89BF89B5
:100A20001A968D919D910D90BC91A02D08891989E0
:100A30002A893B8980179107A207B30780F404171E
:100A400015072607370728F0481759076A077B0755
:100A500098F4D5015796FC93EE9356970DC0041762
:100A600015072607370740F4481759076A077B0719
:100A700018F4E501FF8BEE8BDF91CF911F910F9161
:100A8000FF90EF90DF90CF90BF90AF900895CF93FD
:100A9000DF93DC01ED91FC9111970190F081E02D45
:100AA000848995891296CD91DC911397A817B9077F
:100AB00011F4D58BC48B86899789A817B90711F4CF
:100AC000D78BC68B209731F014968D919C911597FA
:100AD0009D838C8314960D90BC91A02D109721F0CE
:100AE0001396DC93CE93129786899789892B21F4EC
:100AF00084899589978B868BDF91CF910895EF92AA
:100B0000FF920F931F93CF93DF93FC018091B2026A
:100B1000882309F4B5C084859585A685B785019697
:100B2000A11DB11D84879587A687B7874081518114
:100B30006281738184179507A607B70709F0A0C0E3
:100B400040895189628973894F5F5F4F6F4F7F4F33
:100B500084819581A681B78184179507A607B70779
:100B600018F440E050E0BA01408B518B628B738BDC
:100B70001486158616861786C689D789209709F4A4
:100B80007FC08A859B85AC85BD85481759076A0754
:100B90007B0709F075C0CE01DC011296ED90FC9048
:100BA0001397E114F10471F0D7011A960D911D917C
:100BB0002D913C911D97401751076207730711F45F
:100BC000C701EACF2C813D812115310529F0D901DA
:100BD0001396FC92EE921297E114F10429F0D701DA
:100BE00015963C932E93149724893589C217D30701
:100BF00011F4F58AE48AE114F10419F0F78AE68A1F
:100C000004C024893589378B268B8F01FC01138220
:100C10001282EA80FB80E881F9810280F381E02D75
:100C2000CE0109954E815F81688579854115510511
:100C30006105710509F18A859B85AC85BD85840FA9
:100C4000951FA61FB71FF8014481558166817781E2
:100C5000481759076A077B0738F4841B950BA60BC6
:100C6000B70B0197A109B1098A879B87AC87BD871C
:100C7000CE010E94B80401C01E86E701209749F604
:100C8000DF91CF911F910F91FF90EF900895FC019C
:100C900082810C94E3030E946606809168010895A6
:100CA000809368010E946A040E94B4040C94650455
:100CB0000C94780CCF93C82F0E941503811102C0A9
:100CC0000E94B50C8C2FCF910C948E008091BF02A6
:100CD0008130D9F08091B7029091B802A091B90209
:100CE000B091BA02892B8A2B8B2B79F481E0409149
:100CF000BB025091BC026091BD027091BE02452BB7
:100D0000462B472B19F480E0089581E00895109256
:100D1000BF021092BB021092BC021092BD02109250
:100D2000BE021092B7021092B8021092B90210924D
:100D3000BA028091B3029091B402A091B502B09131
:100D4000B6028093C0029093C102A093C202B093F6
:100D5000C30208950E94B80C8091C0029091C10214
:100D6000A091C202B091C3020196A11DB11D809352
:100D7000C0029093C102A093C202B093C3028091BB
:100D8000BB029091BC02A091BD02B091BE0201963F
:100D9000A11DB11D8093BB029093BC02A093BD0224
:100DA000B093BE0208958091BB029091BC02A091C5
:100DB000BD02B091BE020097A105B10569F1409155
:100DC000C0025091C1026091C2027091C3024150B1
:100DD0005109610971094093C0025093C1026093A7
:100DE000C2027093C3020197A109B1098093BB02AB
:100DF0009093BC02A093BD02B093BE028091C0024A
:100E00009091C102A091C202B091C302892B8A2B9A
:100E10008B2B11F40C94B60C08958091BB02909129
:100E2000BC02A091BD02B091BE02892B8A2B8B2BF4
:100E300089F48091B7029091B802A091B902B09163
:100E4000BA02892B8A2B8B2B29F40E94B80C81E0E3
:100E50008093BF0208958091BF02882321F01092F1
:100E6000BF020C94B60C08950E94BC0C8091C00285
:100E70009091C102A091C202B091C3020196A11D3E
:100E8000B11D8093C0029093C102A093C202B0939F
:100E9000C3028091B7029091B802A091B902B091BB
:100EA000BA020196A11DB11D8093B7029093B802BA
:100EB000A093B902B093BA0208958091B7029091BD
:100EC000B802A091B902B091BA020097A105B1058C
:100ED00069F14091C0025091C1026091C2027091CB
:100EE000C30241505109610971094093C0025093F6
:100EF000C1026093C2027093C3020197A109B109B4
:100F00008093B7029093B802A093B902B093BA024B
:100F10008091C0029091C102A091C202B091C3021F
:100F2000892B8A2B8B2B11F40C94BA0C08950E94F8
:100F30006606882311F083E1089580E00895CF9339
:100F4000C82F0E9466068C2F0E94E303C82F809151
:100F50007C0181110E944B048C2FCF910895CF9377
:100F60000E946606882311F0C3E101C0C0E0E09151
:100F70006F01F09170018281815082830E94D303BE
:100F800081E080937B010E9415048C2FCF910895FE
:100F9000CF93C82F0E946606E0916F01F091700117
:100FA0008281815082838C2F0E94E303C82F81119C
:100FB00008C00E94D30381E080937B010E94150446
:100FC00007C0E0916F01F091700182818F5F828391
:100FD0008C2FCF910895CF930E946606882311F03D
:100FE000C3E101C0C0E0809173010E945B030E94D5
:100FF0004B048091730190917401A0917501B0919F
:10100000760140917701509178016091790170915A
:101010007A0184179507A607B70711F40E942E03DB
:101020008C2FCF910895CF93DF93EC010E94660639
:10103000882311F083E101C080E040917301509159
:1010400074016091750170917601141615061606EB
:10105000170614F0488303C09091B9019883DF917B
:10106000CF9108950F931F93CF93C82F8B010E94A8
:101070006606882311F083E101C080E0EC2FEE0FBB
:10108000FF0BEB5CFD4F0190F081E02D948193709C
:10109000F8019083CF911F910F910895880F990BBC
:1010A000FC01EB5CFD4FA081B181ED91FC911197AA
:1010B000309769F01D921C922091B901938184812F
:1010C000228314821382E92FF82F3097B9F70895FD
:1010D000CF93C82F0E946606882311F083E101C0D8
:1010E00080E0EC2FF0E0EE0FFF1FE75AFD4FA081EC
:1010F000B1819091730112969C931297E0916F01C8
:10110000F09170012081318114963C932E931397B6
:10111000B183A083938111969C9311972C91938115
:101120009595921774F4022E000C330BD901AC5232
:10113000BD4F9C9191509C93220F331F9170292B8E
:101140002383CF910895CF93DF93C82F0E94660623
:10115000882311F0D3E101C0D0E0EC2FF0E0EE0FD6
:10116000FF1FE75AFD4F0190F081E02DA0916F0124
:10117000B0917001818113968C9313978381948130
:101180008D939C93148213828091B90182830E9473
:101190004B048D2FDF91CF910895DC01ED91FC91EF
:1011A00084819581DC01ED91FC9109941F93CF938B
:1011B000DF93182FEB010E946606882311F083E16C
:1011C00001C080E0E12FF0E0EE0FFF1FE65DFD4F74
:1011D0000190F081E02D0190F081E02D0190F081EF
:1011E000E02D40815181628173814C835D836E83E8
:1011F0007F834481558166817781488359836A83DF
:101200007B834085518562857385488759876A87C6
:101210007B87DF91CF911F9108958F929F92AF921C
:10122000BF92CF92DF92EF92FF920F931F93CF93D3
:10123000C82F8B010E946606882311F083E101C04C
:1012400080E0EC2FF0E0EE0FFF1FE65DFD4F019018
:10125000F081E02D9685913029F54285538564858E
:1012600075850190F081E02D0190F081E02DC0881E
:10127000D188E288F3884C155D056E057F0540F442
:1012800084809580A680B780480D591D6A1D7B1DFE
:101290004C195D096E097F09F8014083518362830F
:1012A000738301C085E0CF911F910F91FF90EF9064
:1012B000DF90CF90BF90AF909F908F9008958F92C6
:1012C0009F92AF92BF92CF92DF92EF92FF920F93D5
:1012D0001F93CF93DF93D82F4A015B0168017901F7
:1012E0000E946606882311F0C3E101C0C0E0ED2F23
:1012F000F0E0EE0FFF1FE65DFD4F0190F081E02D65
:101300008685811130C0A081B1810D90BC91A02D46
:1013100050964D915D916D917C915397480D591D5B
:101320006A1D7B1D14968D919D910D90BC91A02DF1
:1013300084179507A607B70740F4481B590B6A0B9B
:101340007B0B4150510961097109428753876487BA
:101350007587C682D782E086F18681E08687CF01D5
:101360000E94B80401C0C7E08C2FDF91CF911F917C
:101370000F91FF90EF90DF90CF90BF90AF909F9034
:101380008F9008958F929F92AF92BF92CF92DF92EB
:10139000EF92FF920F931F93CF93DF93C82F4A01D1
:1013A0005B01680179010E946606882311F0D3E190
:1013B00001C0D0E0EC2FF0E0EE0FFF1FE65DFD4F27
:1013C0000190F081E02D868581110EC08286938682
:1013D000A486B586C682D782E086F18681E08687BC
:1013E000CF010E94B80401C0D7E08D2FDF91CF91CB
:1013F0001F910F91FF90EF90DF90CF90BF90AF9033
:101400009F908F9008950F931F93CF93DF93C82FD2
:101410000E946606882311F0D3E101C0D0E0EC2FD2
:10142000F0E0EE0FFF1FE65DFD4F00811181F80136
:101430008685813031F4C8010E944705F80116867F
:1014400001C0D5E08D2FDF91CF911F910F910895AD
:1014500026E040E855E260E070E08EEE92E00C9409
:101460004B108091690190916A01019690936A01F5
:10147000809369016AEB71E08EEE92E00E94410E6A
:101480006091690170916A014AE050E08EEE92E04D
:101490000E94E60E6091690170916A018CEC92E005
:1014A0000E94560D88EE93E00E94B60B81E10E94E7
:1014B000FB0B9093CB028093CA026EEC71E08EEE30
:1014C00092E00E94410E6091CA027091CB024AE004
:1014D00050E08EEE92E00E94E60E80E10E94FB0B4F
:1014E0009093C9028093C80265EE71E08EEE92E09F
:1014F0000E94410E6091C8027091C9024AE050E01A
:101500008EEE92E00E94E60E8EE00E94FB0B90931E
:10151000C7028093C6026CEF71E08EEE92E00E94EB
:10152000410E6091C6027091C7024AE050E08EEE13
:1015300092E00E94E60E8FE00E94FB0B9093C502A2
:101540008093C40263E172E08EEE92E00E94410E4D
:101550006091C4027091C5024AE050E08EEE92E0C4
:101560000E94E60E0C94B6000F931F930FE010E05C
:101570002EE030E040E150E061E170E08CEC92E080
:101580000E94220D1F910F91089581E991E00C9422
:1015900027010895833081F028F4813099F082305A
:1015A000A1F008958730A9F08830B9F08430D1F4E3
:1015B000809180008F7D03C0809180008F77809321
:1015C0008000089584B58F7702C084B58F7D84BD77
:1015D00008958091B0008F7703C08091B0008F7D17
:1015E0008093B0000895CF93DF9390E0FC01E4581E
:1015F000FF4F2491FC01E057FF4F8491882361F154
:1016000090E0880F991FFC01E255FF4FC591D491DE
:10161000FC01EC55FF4FA591B491611109C09FB732
:10162000F8948881209582238883EC912E230BC027
:10163000623061F49FB7F8948881322F309583230C
:101640008883EC912E2B2C939FBF06C08FB7F89404
:10165000E8812E2B28838FBFDF91CF9108951F93B0
:10166000CF93DF93282F30E0F901E859FF4F8491A1
:10167000F901E458FF4FD491F901E057FF4FC491AD
:10168000CC23C1F0162F81110E94CA0AEC2FF0E082
:10169000EE0FFF1FEC55FF4FA591B4919FB7F89443
:1016A000111104C08C91D095D82302C0EC91DE2B8F
:1016B000DC939FBFDF91CF911F9108951F920F92EE
:1016C0000FB60F9211242F933F934F935F936F9315
:1016D0007F938F939F93AF93BF93EF93FF938091EB
:1016E000DE029091DF02A091E002B091E102309120
:1016F000DD0223E0230F2D3720F40196A11DB11D3B
:1017000005C026E8230F0296A11DB11D2093DD021E
:101710008093DE029093DF02A093E002B093E10297
:101720008091E2029091E302A091E402B091E5027F
:101730000196A11DB11D8093E2029093E302A09354
:10174000E402B093E5020E94C50AFF91EF91BF91B8
:10175000AF919F918F917F916F915F914F913F9149
:101760002F910F900FBE0F901F901895823091050A
:1017700038F0880F991F880F991F05970197F1F787
:10178000089584B5826084BD84B5816084BD85B5CB
:10179000826085BD85B5816085BDEEE6F0E0808123
:1017A00081608083E1E8F0E0108280818260808344
:1017B000808181608083E0E8F0E0808181608083C7
:1017C000E1EBF0E0808184608083E0EBF0E08081F9
:1017D00081608083EAE7F0E080818460808380819B
:1017E0008260808380818160808380818068808343
:1017F0001092C10008958E3008F08E502091B301F0
:1018000090E4299F900111248770822B80937C00A3
:1018100080917A00806480937A0080917A0086FDBE
:10182000FCCF809178002091790090E0922B089570
:101830001F93CF93DF93182FEB0161E00E94F30A0F
:10184000209711F460E004C0CF3FD10539F461E086
:10185000812FDF91CF911F910C942F0BE12FF0E09E
:10186000E859FF4FE491E330F9F048F4E130B9F082
:10187000E230A1F584B5806284BDC8BD34C0E730D4
:10188000E9F0E83019F1E43049F580918000806298
:1018900080938000D0938B00C0938A0024C084B5CD
:1018A000806884BDC7BD1FC0809180008068809320
:1018B0008000D0938900C093880015C08091B0004B
:1018C00080688093B000C093B3000DC08091B000D9
:1018D00080628093B000C093B40005C0C038D105C9
:1018E0000CF0B5CFAFCFDF91CF911F910895FFCF0F
:1018F000FFCFCF93DF93880F990BFC01E75CFD4F7F
:10190000C081D181AC81BD8111978A819B81A80F53
:10191000B91F2D85CD010197FD013297223019F4B1
:101920002EEA30E002C02AEC30E02C93DC013C933C
:101930009E818F819083DF018E93CF0107971E9246
:101940008A179B07E1F780E8DF0118978C93CF0196
:1019500044971E928A179B07E1F7A881B981759772
:10196000ED93FC93DF91CF910895089578940895B5
:10197000F894089578940895F894089508950E942D
:10198000C10B0E94BE0C0E94C90A0E94280A8091C5
:10199000E6020E945A0680E090E0089580915F027E
:1019A0008093E602089508951F920F920FB60F924A
:1019B00011242F933F934F935F936F937F938F9354
:1019C0009F93AF93BF93EF93FF93E091B401F09196
:1019D000B5010995FF91EF91BF91AF919F918F91C3
:1019E0007F916F915F914F913F912F910F900FBE1B
:1019F0000F901F9018951F920F920FB60F921124FF
:101A00002F933F934F935F936F937F938F939F9306
:101A1000AF93BF93EF93FF93E091B601F091B701BD
:101A20000995FF91EF91BF91AF919F918F917F9118
:101A30006F915F914F913F912F910F900FBE0F903B
:101A40001F901895AF92BF92CF92DF92EF92FF92C4
:101A50000F931F93CF93DF93EC01D62EA72EE42E86
:101A6000B52EF22EC32E61E08D2D0E94F30A61E0A7
:101A70008E2D0E94F30A61E08F2D0E94F30A61E02F
:101A8000802F0E94F30AD882A982EA82BB82FC825C
:101A9000CD820E831F83DF91CF911F910F91FF9015
:101AA000EF90DF90CF90BF90AF9008950F931F936A
:101AB000CF93DF93EC018B0188810E94180C60E0CA
:101AC00070E08A810E94180CB8018C810E94180C69
:101AD00060E070E08E81DF91CF911F910F910C94A7
:101AE000180C813039F018F0823051F008951092BE
:101AF0006E00089580916F008D7F80936F00089530
:101B0000809170008D7F8093700081E08093B000A1
:101B10008091B100887F84608093B1001092B300FF
:101B20000895CF93C82F8091B801C81307C0E8EB80
:101B3000F0E084919FEF9093B80101C08FEF0E9475
:101B4000710D60E08C2FCF910C942F0B1F920F9290
:101B50000FB60F9211242F933F934F935F936F9380
:101B60007F938F939F93AF93BF93EF93FF93809156
:101B7000EA029091EB02A091EC02B091ED02892B68
:101B80008A2B8B2B51F19091E702E091E802F091C2
:101B9000E9028081892780838091EA029091EB029B
:101BA000A091EC02B091ED02181619061A061B0658
:101BB000C4F48091EA029091EB02A091EC02B09102
:101BC000ED020197A109B1098093EA029093EB021B
:101BD000A093EC02B093ED0204C08091B8010E9482
:101BE000910DFF91EF91BF91AF919F918F917F9157
:101BF0006F915F914F913F912F910F900FBE0F907A
:101C00001F901895CF92DF92EF92FF920F931F9340
:101C1000CF93DF936C017A018B01C0E0D0E0CE1549
:101C2000DF0581F0D8016D918D01D601ED91FC9118
:101C30000190F081E02DC6010995892B11F02196C4
:101C4000EECF7E01C701DF91CF911F910F91FF90E1
:101C5000EF90DF90CF9008956115710579F0FB0149
:101C600001900020E9F73197AF01461B570BDC01CB
:101C7000ED91FC910280F381E02D099480E090E0E9
:101C800008950C942C0EDC01ED91FC910190F081F3
:101C9000E02D099460E972E00C942C0E8F929F92D3
:101CA000AF92BF92EF92FF920F931F93CF93DF9368
:101CB000CDB7DEB7A1970FB6F894DEBF0FBECDBF8C
:101CC0007C01FA01CB0119A2223008F42AE08E012E
:101CD0000F5D1F4F822E912CA12CB12CBF01A501AD
:101CE00094010E94B310F901CA01015011096A3030
:101CF00014F4605D01C0695CD8016C93232B242B24
:101D0000252B61F7B801C7010E942C0EA1960FB6D2
:101D1000F894DEBF0FBECDBFDF91CF911F910F9121
:101D2000FF90EF90BF90AF909F908F900895CF92CB
:101D3000DF92EF92FF920F931F93CF93DF932115C2
:101D4000310581F4DC01ED91FC910190F081E02DF1
:101D5000642FDF91CF911F910F91FF90EF90DF9053
:101D6000CF9009942A30310501F577FF1DC06A0133
:101D70007B01EC016DE20E94430E8C014427552744
:101D8000BA014C195D096E097F092AE0CE010E9453
:101D90004E0E800F911FDF91CF911F910F91FF90F9
:101DA000EF90DF90CF9008952AE0DF91CF911F91BF
:101DB0000F91FF90EF90DF90CF900C944E0E9A0110
:101DC000AB01770F660B770B0C94970E0F931F9355
:101DD000CF93DF93EC010E94DF0E8C01CE010E94B5
:101DE0004A0E800F911FDF91CF911F910F9108959F
:101DF0001F920F920FB60F9211242F938F939F93E0
:101E0000EF93FF93E091FE02F091FF028081E09159
:101E10000403F091050382FD12C0908180910703B5
:101E20008F5F8F7320910803821751F0E0910703B1
:101E3000F0E0E251FD4F958F8093070301C0808150
:101E4000FF91EF919F918F912F910F900FBE0F9067
:101E50001F9018951F920F920FB60F9211242F9377
:101E60003F934F935F936F937F938F939F93AF9322
:101E7000BF93EF93FF938EEE92E00E94BA0FFF9113
:101E8000EF91BF91AF919F918F917F916F915F91F2
:101E90004F913F912F910F900FBE0F901F9018956B
:101EA000EEEEF2E01382128288EE93E0A0E0B0E062
:101EB00084839583A683B78383EA92E091838083AA
:101EC00085EC90E09587848784EC90E097878687FF
:101ED00080EC90E0918B808B81EC90E0938B828BF7
:101EE00082EC90E0958B848B86EC90E0978B868BD0
:101EF000118E128E138E148E0895FC01918D228DF9
:101F0000892F90E0805C9F4F821B91098F739927E6
:101F10000895FC01918D828D981731F0828DE80F24
:101F2000F11D858D90E008958FEF9FEF0895FC01DE
:101F3000918D828D981761F0828DDF01A80FB11D00
:101F40005D968C91928D9F5F9F73928F90E0089524
:101F50008FEF9FEF0895FC01538D448D252F30E0C6
:101F6000842F90E0821B930B541710F0CF960895A6
:101F700001970895FC01848DDF01A80FB11DA35ABC
:101F8000BF4F2C91848D90E001968F739927848F99
:101F9000A689B7892C93A089B1898C9183708064BC
:101FA0008C93938D848D981306C00288F389E02D5D
:101FB00080818F7D80830895EF92FF920F931F930E
:101FC000CF93DF93EC0181E0888F9B8D8C8D9813EC
:101FD00005C0E889F989808185FD26C0F62E0B8D24
:101FE00010E00F5F1F4F0F731127E02E8C8DE8124A
:101FF0000CC00FB607FCFACFE889F989808185FF0C
:10200000F5CFCE010E94BA0FF1CF8B8DFE01E80F04
:10201000F11DE35AFF4FF0829FB7F8940B8FEA89C6
:10202000FB89808180620AC09FB7F894EE89FF899E
:102030006083E889F98980818370806480839FBF91
:1020400081E090E0DF91CF911F910F91FF90EF9091
:102050000895CF93DF93EC01888D8823C9F0EA8936
:10206000FB89808185FD05C0A889B9898C9186FD91
:102070000FC00FB607FCF5CF808185FFF2CFA8898E
:10208000B9898C9185FFEDCFCE010E94BA0FE7CFC1
:10209000DF91CF910895CF92DF92EF92FF921F933D
:1020A000CF93DF93EC016A017B01122FE889F98954
:1020B00082E080834115514E61057105B1F060E009
:1020C00079E08DE390E0A70196010E94B310DA0158
:1020D000C9010197A109B109B695A795979587956B
:1020E0009C01211580E13807A8F0E889F989108260
:1020F00060E874E88EE190E0A70196010E94B310B9
:10210000DA01C9010197A109B109B695A79597957B
:1021100087959C01EC85FD853083EE85FF852083C6
:10212000188EEC89FD891083EA89FB8980818061A2
:102130008083EA89FB89808188608083EA89FB89C2
:10214000808180688083EA89FB8980818F7D80839C
:10215000DF91CF911F91FF90EF90DF90CF90089586
:10216000F8940C94DB10A1E21A2EAA1BBB1BFD01F4
:102170000DC0AA1FBB1FEE1FFF1FA217B307E40766
:10218000F50720F0A21BB30BE40BF50B661F771FBE
:10219000881F991F1A9469F760957095809590959E
:1021A0009B01AC01BD01CF010895EE0FFF1F05900B
:0A21B000F491E02D0994F894FFCF9C
:1021BA000000000000000000000000000000000015
:1021CA000000000000000000000000000000000005
:1021DA0000000000000000000000000000000000F5
:1021EA0000000000000000000000000000000000E5
:1021FA0000000000000000000000000000000000D5
:10220A0000000000000000000000000000000000C4
:10221A000000000000000000FF640000004B020004
:10222A0000D802FFFFFFFFFFFFFFFF00002C0200A4
:10223A00000000C8000000C8000000020000000101
:10224A000001000000FFFF00000100000000000084
:10225A000000000000000000000200FF0000020071
:10226A00FF000001D30CD30CFFFF64726976696E1C
:10227A006720666F7277617264206174200043750B
:10228A007272656E7420494E315F4120686F6C64CA
:10229A0073203A200043757272656E7420494E317C
:1022AA005F4220686F6C6473203A20004375727233
:1022BA00656E7420494E325F4120686F6C647320EA
:1022CA003A200043757272656E7420494E325F423D
:1022DA0020686F6C6473203A20007D019101CD085B
:1022EA0032024706008C01D8023D024B02E50493F4
:1022FA00030001310A000000010100930495045013
:10230A0000770C000001000100AE01A901010000E4
:10231A005D072B0734070D07A104AA068E04D3060E
:10232A00AF075006580668089F07A308C807D608CB
:10233A0013080D094B065F09EB07C209030A3208A5
:10234A000D0A006E616E00696E66006F76660000A7
:10235A00000000DC0F020EAB0F29107D0F970F89CA
:02236A000F0062
:00000001FF
